{
  "_format": "hh-sol-artifact-1",
  "contractName": "TenderManagementSystem",
  "sourceName": "contracts/TenderManagementSystem.sol",
  "abi": [
    {
      "inputs": [
        {
          "internalType": "address",
          "name": "",
          "type": "address"
        }
      ],
      "name": "bidTender",
      "outputs": [
        {
          "internalType": "address",
          "name": "account",
          "type": "address"
        },
        {
          "internalType": "string",
          "name": "applicationId",
          "type": "string"
        },
        {
          "internalType": "string",
          "name": "tenderStage",
          "type": "string"
        }
      ],
      "stateMutability": "view",
      "type": "function"
    },
    {
      "inputs": [
        {
          "internalType": "uint256",
          "name": "",
          "type": "uint256"
        }
      ],
      "name": "bidTendersArray",
      "outputs": [
        {
          "internalType": "address",
          "name": "account",
          "type": "address"
        },
        {
          "internalType": "string",
          "name": "applicationId",
          "type": "string"
        },
        {
          "internalType": "string",
          "name": "tenderStage",
          "type": "string"
        }
      ],
      "stateMutability": "view",
      "type": "function"
    },
    {
      "inputs": [
        {
          "internalType": "uint256",
          "name": "",
          "type": "uint256"
        }
      ],
      "name": "companiesDocsArray",
      "outputs": [
        {
          "internalType": "address",
          "name": "account",
          "type": "address"
        },
        {
          "internalType": "string",
          "name": "docId",
          "type": "string"
        },
        {
          "internalType": "string",
          "name": "name",
          "type": "string"
        }
      ],
      "stateMutability": "view",
      "type": "function"
    },
    {
      "inputs": [
        {
          "internalType": "uint256",
          "name": "",
          "type": "uint256"
        }
      ],
      "name": "companiesProfilesArray",
      "outputs": [
        {
          "internalType": "address",
          "name": "account",
          "type": "address"
        },
        {
          "internalType": "string",
          "name": "companyName",
          "type": "string"
        },
        {
          "internalType": "string",
          "name": "companyAddress",
          "type": "string"
        },
        {
          "internalType": "string",
          "name": "contactInfo",
          "type": "string"
        },
        {
          "internalType": "string",
          "name": "email",
          "type": "string"
        }
      ],
      "stateMutability": "view",
      "type": "function"
    },
    {
      "inputs": [
        {
          "internalType": "address",
          "name": "",
          "type": "address"
        }
      ],
      "name": "companyDocs",
      "outputs": [
        {
          "internalType": "address",
          "name": "account",
          "type": "address"
        },
        {
          "internalType": "string",
          "name": "docId",
          "type": "string"
        },
        {
          "internalType": "string",
          "name": "name",
          "type": "string"
        }
      ],
      "stateMutability": "view",
      "type": "function"
    },
    {
      "inputs": [
        {
          "internalType": "address",
          "name": "",
          "type": "address"
        }
      ],
      "name": "companyProfile",
      "outputs": [
        {
          "internalType": "address",
          "name": "account",
          "type": "address"
        },
        {
          "internalType": "string",
          "name": "companyName",
          "type": "string"
        },
        {
          "internalType": "string",
          "name": "companyAddress",
          "type": "string"
        },
        {
          "internalType": "string",
          "name": "contactInfo",
          "type": "string"
        },
        {
          "internalType": "string",
          "name": "email",
          "type": "string"
        }
      ],
      "stateMutability": "view",
      "type": "function"
    },
    {
      "inputs": [
        {
          "internalType": "string",
          "name": "_applicationId",
          "type": "string"
        },
        {
          "internalType": "string",
          "name": "_tenderStage",
          "type": "string"
        },
        {
          "internalType": "string[]",
          "name": "_biddingDocs",
          "type": "string[]"
        }
      ],
      "name": "createBidTender",
      "outputs": [],
      "stateMutability": "nonpayable",
      "type": "function"
    },
    {
      "inputs": [
        {
          "internalType": "string",
          "name": "_docId",
          "type": "string"
        },
        {
          "internalType": "string",
          "name": "_name",
          "type": "string"
        },
        {
          "internalType": "string[]",
          "name": "_docAddress",
          "type": "string[]"
        }
      ],
      "name": "createCompanyDocs",
      "outputs": [],
      "stateMutability": "nonpayable",
      "type": "function"
    },
    {
      "inputs": [
        {
          "internalType": "string",
          "name": "_companyName",
          "type": "string"
        },
        {
          "internalType": "string",
          "name": "_companyAddress",
          "type": "string"
        },
        {
          "internalType": "string",
          "name": "_contactInfo",
          "type": "string"
        },
        {
          "internalType": "string",
          "name": "_email",
          "type": "string"
        }
      ],
      "name": "createCompanyProfile",
      "outputs": [],
      "stateMutability": "nonpayable",
      "type": "function"
    },
    {
      "inputs": [
        {
          "internalType": "string",
          "name": "_requestForQuotation",
          "type": "string"
        },
        {
          "internalType": "string",
          "name": "_openDate",
          "type": "string"
        },
        {
          "internalType": "string",
          "name": "_closingDate",
          "type": "string"
        },
        {
          "internalType": "string",
          "name": "_requirements",
          "type": "string"
        }
      ],
      "name": "createTenderAdvert",
      "outputs": [],
      "stateMutability": "nonpayable",
      "type": "function"
    },
    {
      "inputs": [
        {
          "internalType": "string",
          "name": "_application",
          "type": "string"
        },
        {
          "internalType": "bool",
          "name": "_acceptApplication",
          "type": "bool"
        },
        {
          "internalType": "string",
          "name": "_reasons",
          "type": "string"
        }
      ],
      "name": "createTenderProcess",
      "outputs": [],
      "stateMutability": "nonpayable",
      "type": "function"
    },
    {
      "inputs": [
        {
          "internalType": "string",
          "name": "_requestForQuotaion",
          "type": "string"
        },
        {
          "internalType": "string",
          "name": "_stageId",
          "type": "string"
        },
        {
          "internalType": "string",
          "name": "_stageName",
          "type": "string"
        },
        {
          "internalType": "string",
          "name": "_requirements",
          "type": "string"
        }
      ],
      "name": "createTenderStages",
      "outputs": [],
      "stateMutability": "nonpayable",
      "type": "function"
    },
    {
      "inputs": [],
      "name": "getBidTender",
      "outputs": [
        {
          "components": [
            {
              "internalType": "address",
              "name": "account",
              "type": "address"
            },
            {
              "internalType": "string",
              "name": "applicationId",
              "type": "string"
            },
            {
              "internalType": "string",
              "name": "tenderStage",
              "type": "string"
            },
            {
              "internalType": "string[]",
              "name": "biddingDocs",
              "type": "string[]"
            }
          ],
          "internalType": "struct TenderManagementSystem.BidTender[]",
          "name": "",
          "type": "tuple[]"
        }
      ],
      "stateMutability": "view",
      "type": "function"
    },
    {
      "inputs": [],
      "name": "getCompanyDocs",
      "outputs": [
        {
          "components": [
            {
              "internalType": "address",
              "name": "account",
              "type": "address"
            },
            {
              "internalType": "string",
              "name": "docId",
              "type": "string"
            },
            {
              "internalType": "string",
              "name": "name",
              "type": "string"
            },
            {
              "internalType": "string[]",
              "name": "docAddress",
              "type": "string[]"
            }
          ],
          "internalType": "struct TenderManagementSystem.CompanyDocs[]",
          "name": "",
          "type": "tuple[]"
        }
      ],
      "stateMutability": "view",
      "type": "function"
    },
    {
      "inputs": [],
      "name": "getCompanyProfile",
      "outputs": [
        {
          "components": [
            {
              "internalType": "address",
              "name": "account",
              "type": "address"
            },
            {
              "internalType": "string",
              "name": "companyName",
              "type": "string"
            },
            {
              "internalType": "string",
              "name": "companyAddress",
              "type": "string"
            },
            {
              "internalType": "string",
              "name": "contactInfo",
              "type": "string"
            },
            {
              "internalType": "string",
              "name": "email",
              "type": "string"
            }
          ],
          "internalType": "struct TenderManagementSystem.CompanyProfile[]",
          "name": "",
          "type": "tuple[]"
        }
      ],
      "stateMutability": "view",
      "type": "function"
    },
    {
      "inputs": [],
      "name": "getTenderAdvert",
      "outputs": [
        {
          "components": [
            {
              "internalType": "string",
              "name": "requestForQuotation",
              "type": "string"
            },
            {
              "internalType": "string",
              "name": "openDate",
              "type": "string"
            },
            {
              "internalType": "string",
              "name": "closingDate",
              "type": "string"
            },
            {
              "internalType": "string",
              "name": "requirements",
              "type": "string"
            },
            {
              "internalType": "address",
              "name": "account",
              "type": "address"
            }
          ],
          "internalType": "struct TenderManagementSystem.TenderAdvert[]",
          "name": "",
          "type": "tuple[]"
        }
      ],
      "stateMutability": "view",
      "type": "function"
    },
    {
      "inputs": [],
      "name": "getTenderProcess",
      "outputs": [
        {
          "components": [
            {
              "internalType": "address",
              "name": "account",
              "type": "address"
            },
            {
              "internalType": "string",
              "name": "application",
              "type": "string"
            },
            {
              "internalType": "bool",
              "name": "acceptApplication",
              "type": "bool"
            },
            {
              "internalType": "string",
              "name": "reasons",
              "type": "string"
            }
          ],
          "internalType": "struct TenderManagementSystem.TenderProcess[]",
          "name": "",
          "type": "tuple[]"
        }
      ],
      "stateMutability": "view",
      "type": "function"
    },
    {
      "inputs": [],
      "name": "getTenderStages",
      "outputs": [
        {
          "components": [
            {
              "internalType": "string",
              "name": "requestForQuotation",
              "type": "string"
            },
            {
              "internalType": "address",
              "name": "account",
              "type": "address"
            },
            {
              "internalType": "string",
              "name": "stageId",
              "type": "string"
            },
            {
              "internalType": "string",
              "name": "stageName",
              "type": "string"
            },
            {
              "internalType": "string",
              "name": "requirements",
              "type": "string"
            }
          ],
          "internalType": "struct TenderManagementSystem.TenderStages[]",
          "name": "",
          "type": "tuple[]"
        }
      ],
      "stateMutability": "view",
      "type": "function"
    },
    {
      "inputs": [
        {
          "internalType": "address",
          "name": "",
          "type": "address"
        }
      ],
      "name": "tenderAdvert",
      "outputs": [
        {
          "internalType": "string",
          "name": "requestForQuotation",
          "type": "string"
        },
        {
          "internalType": "string",
          "name": "openDate",
          "type": "string"
        },
        {
          "internalType": "string",
          "name": "closingDate",
          "type": "string"
        },
        {
          "internalType": "string",
          "name": "requirements",
          "type": "string"
        },
        {
          "internalType": "address",
          "name": "account",
          "type": "address"
        }
      ],
      "stateMutability": "view",
      "type": "function"
    },
    {
      "inputs": [
        {
          "internalType": "uint256",
          "name": "",
          "type": "uint256"
        }
      ],
      "name": "tenderProcessesArray",
      "outputs": [
        {
          "internalType": "address",
          "name": "account",
          "type": "address"
        },
        {
          "internalType": "string",
          "name": "application",
          "type": "string"
        },
        {
          "internalType": "bool",
          "name": "acceptApplication",
          "type": "bool"
        },
        {
          "internalType": "string",
          "name": "reasons",
          "type": "string"
        }
      ],
      "stateMutability": "view",
      "type": "function"
    },
    {
      "inputs": [
        {
          "internalType": "address",
          "name": "",
          "type": "address"
        }
      ],
      "name": "tenderProcessing",
      "outputs": [
        {
          "internalType": "address",
          "name": "account",
          "type": "address"
        },
        {
          "internalType": "string",
          "name": "application",
          "type": "string"
        },
        {
          "internalType": "bool",
          "name": "acceptApplication",
          "type": "bool"
        },
        {
          "internalType": "string",
          "name": "reasons",
          "type": "string"
        }
      ],
      "stateMutability": "view",
      "type": "function"
    },
    {
      "inputs": [
        {
          "internalType": "string",
          "name": "",
          "type": "string"
        }
      ],
      "name": "tenderStages",
      "outputs": [
        {
          "internalType": "string",
          "name": "requestForQuotation",
          "type": "string"
        },
        {
          "internalType": "address",
          "name": "account",
          "type": "address"
        },
        {
          "internalType": "string",
          "name": "stageId",
          "type": "string"
        },
        {
          "internalType": "string",
          "name": "stageName",
          "type": "string"
        },
        {
          "internalType": "string",
          "name": "requirements",
          "type": "string"
        }
      ],
      "stateMutability": "view",
      "type": "function"
    },
    {
      "inputs": [
        {
          "internalType": "uint256",
          "name": "",
          "type": "uint256"
        }
      ],
      "name": "tenderStagesArray",
      "outputs": [
        {
          "internalType": "string",
          "name": "requestForQuotation",
          "type": "string"
        },
        {
          "internalType": "address",
          "name": "account",
          "type": "address"
        },
        {
          "internalType": "string",
          "name": "stageId",
          "type": "string"
        },
        {
          "internalType": "string",
          "name": "stageName",
          "type": "string"
        },
        {
          "internalType": "string",
          "name": "requirements",
          "type": "string"
        }
      ],
      "stateMutability": "view",
      "type": "function"
    },
    {
      "inputs": [
        {
          "internalType": "uint256",
          "name": "",
          "type": "uint256"
        }
      ],
      "name": "tendersArray",
      "outputs": [
        {
          "internalType": "string",
          "name": "requestForQuotation",
          "type": "string"
        },
        {
          "internalType": "string",
          "name": "openDate",
          "type": "string"
        },
        {
          "internalType": "string",
          "name": "closingDate",
          "type": "string"
        },
        {
          "internalType": "string",
          "name": "requirements",
          "type": "string"
        },
        {
          "internalType": "address",
          "name": "account",
          "type": "address"
        }
      ],
      "stateMutability": "view",
      "type": "function"
    }
  ],
  "bytecode": "0x608060405234801561001057600080fd5b50614e3d806100206000396000f3fe608060405234801561001057600080fd5b50600436106101585760003560e01c806393a7a889116100c3578063cc471b8a1161007c578063cc471b8a1461041a578063d61294d21461044c578063d928ab4d1461046a578063ebcb439f1461049e578063ee8e878b146104d0578063f1e60d651461050357610158565b806393a7a88914610352578063953b081f14610370578063a3733fc91461038e578063b179e237146103aa578063bfd965b7146103c8578063c61c6add146103fc57610158565b80636645882d116101155780636645882d14610266578063674f876a146102825780636e18db261461029e5780636ee435d6146102d057806374868a4e14610302578063788dd1391461033657610158565b8063120537331461015d57806325a407121461019157806346505646146101c45780635d001e2e146101f85780636042059b1461022c5780636617813a1461024a575b600080fd5b610177600480360381019061017291906138a1565b61051f565b60405161018895949392919061396d565b60405180910390f35b6101ab60048036038101906101a691906138a1565b610795565b6040516101bb94939291906139f7565b60405180910390f35b6101de60048036038101906101d99190613b7f565b610902565b6040516101ef959493929190613bc8565b60405180910390f35b610212600480360381019061020d9190613c6d565b610b8e565b604051610223959493929190613bc8565b60405180910390f35b610234610e14565b6040516102419190613ee8565b60405180910390f35b610264600480360381019061025f9190613f0a565b6110c6565b005b610280600480360381019061027b9190613f0a565b611263565b005b61029c600480360381019061029791906140c7565b611421565b005b6102b860048036038101906102b391906138a1565b6115c0565b6040516102c79392919061416e565b60405180910390f35b6102ea60048036038101906102e591906138a1565b61171a565b6040516102f99392919061416e565b60405180910390f35b61031c60048036038101906103179190613c6d565b611874565b60405161032d95949392919061396d565b60405180910390f35b610350600480360381019061034b91906141df565b611afa565b005b61035a611cb2565b604051610367919061439d565b60405180910390f35b610378611f64565b604051610385919061450c565b60405180910390f35b6103a860048036038101906103a391906140c7565b612261565b005b6103b2612400565b6040516103bf919061467b565b60405180910390f35b6103e260048036038101906103dd91906138a1565b6126fd565b6040516103f395949392919061469d565b60405180910390f35b610404612973565b6040516104119190614859565b60405180910390f35b610434600480360381019061042f9190613c6d565b612c70565b6040516104439392919061416e565b60405180910390f35b610454612dda565b60405161046191906149b6565b60405180910390f35b610484600480360381019061047f9190613c6d565b612fce565b60405161049595949392919061469d565b60405180910390f35b6104b860048036038101906104b39190613c6d565b613254565b6040516104c79392919061416e565b60405180910390f35b6104ea60048036038101906104e59190613c6d565b6133be565b6040516104fa94939291906139f7565b60405180910390f35b61051d60048036038101906105189190613f0a565b61353b565b005b60046020528060005260406000206000915090508060000160009054906101000a900473ffffffffffffffffffffffffffffffffffffffff169080600101805461056890614a07565b80601f016020809104026020016040519081016040528092919081815260200182805461059490614a07565b80156105e15780601f106105b6576101008083540402835291602001916105e1565b820191906000526020600020905b8154815290600101906020018083116105c457829003601f168201915b5050505050908060020180546105f690614a07565b80601f016020809104026020016040519081016040528092919081815260200182805461062290614a07565b801561066f5780601f106106445761010080835404028352916020019161066f565b820191906000526020600020905b81548152906001019060200180831161065257829003601f168201915b50505050509080600301805461068490614a07565b80601f01602080910402602001604051908101604052809291908181526020018280546106b090614a07565b80156106fd5780601f106106d2576101008083540402835291602001916106fd565b820191906000526020600020905b8154815290600101906020018083116106e057829003601f168201915b50505050509080600401805461071290614a07565b80601f016020809104026020016040519081016040528092919081815260200182805461073e90614a07565b801561078b5780601f106107605761010080835404028352916020019161078b565b820191906000526020600020905b81548152906001019060200180831161076e57829003601f168201915b5050505050905085565b600a6020528060005260406000206000915090508060000160009054906101000a900473ffffffffffffffffffffffffffffffffffffffff16908060010180546107de90614a07565b80601f016020809104026020016040519081016040528092919081815260200182805461080a90614a07565b80156108575780601f1061082c57610100808354040283529160200191610857565b820191906000526020600020905b81548152906001019060200180831161083a57829003601f168201915b5050505050908060020160009054906101000a900460ff169080600301805461087f90614a07565b80601f01602080910402602001604051908101604052809291908181526020018280546108ab90614a07565b80156108f85780601f106108cd576101008083540402835291602001916108f8565b820191906000526020600020905b8154815290600101906020018083116108db57829003601f168201915b5050505050905084565b60028180516020810182018051848252602083016020850120818352809550505050505060009150905080600001805461093b90614a07565b80601f016020809104026020016040519081016040528092919081815260200182805461096790614a07565b80156109b45780601f10610989576101008083540402835291602001916109b4565b820191906000526020600020905b81548152906001019060200180831161099757829003601f168201915b5050505050908060010160009054906101000a900473ffffffffffffffffffffffffffffffffffffffff16908060020180546109ef90614a07565b80601f0160208091040260200160405190810160405280929190818152602001828054610a1b90614a07565b8015610a685780601f10610a3d57610100808354040283529160200191610a68565b820191906000526020600020905b815481529060010190602001808311610a4b57829003601f168201915b505050505090806003018054610a7d90614a07565b80601f0160208091040260200160405190810160405280929190818152602001828054610aa990614a07565b8015610af65780601f10610acb57610100808354040283529160200191610af6565b820191906000526020600020905b815481529060010190602001808311610ad957829003601f168201915b505050505090806004018054610b0b90614a07565b80601f0160208091040260200160405190810160405280929190818152602001828054610b3790614a07565b8015610b845780601f10610b5957610100808354040283529160200191610b84565b820191906000526020600020905b815481529060010190602001808311610b6757829003601f168201915b5050505050905085565b60038181548110610b9e57600080fd5b9060005260206000209060050201600091509050806000018054610bc190614a07565b80601f0160208091040260200160405190810160405280929190818152602001828054610bed90614a07565b8015610c3a5780601f10610c0f57610100808354040283529160200191610c3a565b820191906000526020600020905b815481529060010190602001808311610c1d57829003601f168201915b5050505050908060010160009054906101000a900473ffffffffffffffffffffffffffffffffffffffff1690806002018054610c7590614a07565b80601f0160208091040260200160405190810160405280929190818152602001828054610ca190614a07565b8015610cee5780601f10610cc357610100808354040283529160200191610cee565b820191906000526020600020905b815481529060010190602001808311610cd157829003601f168201915b505050505090806003018054610d0390614a07565b80601f0160208091040260200160405190810160405280929190818152602001828054610d2f90614a07565b8015610d7c5780601f10610d5157610100808354040283529160200191610d7c565b820191906000526020600020905b815481529060010190602001808311610d5f57829003601f168201915b505050505090806004018054610d9190614a07565b80601f0160208091040260200160405190810160405280929190818152602001828054610dbd90614a07565b8015610e0a5780601f10610ddf57610100808354040283529160200191610e0a565b820191906000526020600020905b815481529060010190602001808311610ded57829003601f168201915b5050505050905085565b60606009805480602002602001604051908101604052809291908181526020016000905b828210156110bd57838290600052602060002090600402016040518060800160405290816000820160009054906101000a900473ffffffffffffffffffffffffffffffffffffffff1673ffffffffffffffffffffffffffffffffffffffff1673ffffffffffffffffffffffffffffffffffffffff168152602001600182018054610ec190614a07565b80601f0160208091040260200160405190810160405280929190818152602001828054610eed90614a07565b8015610f3a5780601f10610f0f57610100808354040283529160200191610f3a565b820191906000526020600020905b815481529060010190602001808311610f1d57829003601f168201915b50505050508152602001600282018054610f5390614a07565b80601f0160208091040260200160405190810160405280929190818152602001828054610f7f90614a07565b8015610fcc5780601f10610fa157610100808354040283529160200191610fcc565b820191906000526020600020905b815481529060010190602001808311610faf57829003601f168201915b5050505050815260200160038201805480602002602001604051908101604052809291908181526020016000905b828210156110a657838290600052602060002001805461101990614a07565b80601f016020809104026020016040519081016040528092919081815260200182805461104590614a07565b80156110925780601f1061106757610100808354040283529160200191611092565b820191906000526020600020905b81548152906001019060200180831161107557829003601f168201915b505050505081526020019060010190610ffa565b505050508152505081526020019060010190610e38565b50505050905090565b60006002856040516110d89190614a74565b90815260200160405180910390209050848160000190816110f99190614c37565b508381600201908161110b9190614c37565b508281600301908161111d9190614c37565b508181600401908161112f9190614c37565b50338160010160006101000a81548173ffffffffffffffffffffffffffffffffffffffff021916908373ffffffffffffffffffffffffffffffffffffffff1602179055506003819080600181540180825580915050600190039060005260206000209060050201600090919091909150600082018160000190816111b39190614d1f565b506001820160009054906101000a900473ffffffffffffffffffffffffffffffffffffffff168160010160006101000a81548173ffffffffffffffffffffffffffffffffffffffff021916908373ffffffffffffffffffffffffffffffffffffffff1602179055506002820181600201908161122f9190614d1f565b50600382018160030190816112449190614d1f565b50600482018160040190816112599190614d1f565b5050505050505050565b6000600460003373ffffffffffffffffffffffffffffffffffffffff1673ffffffffffffffffffffffffffffffffffffffff1681526020019081526020016000209050848160010190816112b79190614c37565b50838160020190816112c99190614c37565b50828160030190816112db9190614c37565b50818160040190816112ed9190614c37565b50338160000160006101000a81548173ffffffffffffffffffffffffffffffffffffffff021916908373ffffffffffffffffffffffffffffffffffffffff16021790555060058190806001815401808255809150506001900390600052602060002090600502016000909190919091506000820160009054906101000a900473ffffffffffffffffffffffffffffffffffffffff168160000160006101000a81548173ffffffffffffffffffffffffffffffffffffffff021916908373ffffffffffffffffffffffffffffffffffffffff160217905550600182018160010190816113d89190614d1f565b50600282018160020190816113ed9190614d1f565b50600382018160030190816114029190614d1f565b50600482018160040190816114179190614d1f565b5050505050505050565b6000600860003373ffffffffffffffffffffffffffffffffffffffff1673ffffffffffffffffffffffffffffffffffffffff1681526020019081526020016000209050838160010190816114759190614c37565b50828160020190816114879190614c37565b50818160030190805190602001906114a09291906136f8565b50338160000160006101000a81548173ffffffffffffffffffffffffffffffffffffffff021916908373ffffffffffffffffffffffffffffffffffffffff16021790555060098190806001815401808255809150506001900390600052602060002090600402016000909190919091506000820160009054906101000a900473ffffffffffffffffffffffffffffffffffffffff168160000160006101000a81548173ffffffffffffffffffffffffffffffffffffffff021916908373ffffffffffffffffffffffffffffffffffffffff1602179055506001820181600101908161158b9190614d1f565b50600282018160020190816115a09190614d1f565b5060038201816003019080546115b7929190613751565b50505050505050565b60086020528060005260406000206000915090508060000160009054906101000a900473ffffffffffffffffffffffffffffffffffffffff169080600101805461160990614a07565b80601f016020809104026020016040519081016040528092919081815260200182805461163590614a07565b80156116825780601f1061165757610100808354040283529160200191611682565b820191906000526020600020905b81548152906001019060200180831161166557829003601f168201915b50505050509080600201805461169790614a07565b80601f01602080910402602001604051908101604052809291908181526020018280546116c390614a07565b80156117105780601f106116e557610100808354040283529160200191611710565b820191906000526020600020905b8154815290600101906020018083116116f357829003601f168201915b5050505050905083565b60066020528060005260406000206000915090508060000160009054906101000a900473ffffffffffffffffffffffffffffffffffffffff169080600101805461176390614a07565b80601f016020809104026020016040519081016040528092919081815260200182805461178f90614a07565b80156117dc5780601f106117b1576101008083540402835291602001916117dc565b820191906000526020600020905b8154815290600101906020018083116117bf57829003601f168201915b5050505050908060020180546117f190614a07565b80601f016020809104026020016040519081016040528092919081815260200182805461181d90614a07565b801561186a5780601f1061183f5761010080835404028352916020019161186a565b820191906000526020600020905b81548152906001019060200180831161184d57829003601f168201915b5050505050905083565b6005818154811061188457600080fd5b90600052602060002090600502016000915090508060000160009054906101000a900473ffffffffffffffffffffffffffffffffffffffff16908060010180546118cd90614a07565b80601f01602080910402602001604051908101604052809291908181526020018280546118f990614a07565b80156119465780601f1061191b57610100808354040283529160200191611946565b820191906000526020600020905b81548152906001019060200180831161192957829003601f168201915b50505050509080600201805461195b90614a07565b80601f016020809104026020016040519081016040528092919081815260200182805461198790614a07565b80156119d45780601f106119a9576101008083540402835291602001916119d4565b820191906000526020600020905b8154815290600101906020018083116119b757829003601f168201915b5050505050908060030180546119e990614a07565b80601f0160208091040260200160405190810160405280929190818152602001828054611a1590614a07565b8015611a625780601f10611a3757610100808354040283529160200191611a62565b820191906000526020600020905b815481529060010190602001808311611a4557829003601f168201915b505050505090806004018054611a7790614a07565b80601f0160208091040260200160405190810160405280929190818152602001828054611aa390614a07565b8015611af05780601f10611ac557610100808354040283529160200191611af0565b820191906000526020600020905b815481529060010190602001808311611ad357829003601f168201915b5050505050905085565b6000600a60003373ffffffffffffffffffffffffffffffffffffffff1673ffffffffffffffffffffffffffffffffffffffff168152602001908152602001600020905083816001019081611b4e9190614c37565b50828160020160006101000a81548160ff02191690831515021790555081816003019081611b7c9190614c37565b50338160000160006101000a81548173ffffffffffffffffffffffffffffffffffffffff021916908373ffffffffffffffffffffffffffffffffffffffff160217905550600b8190806001815401808255809150506001900390600052602060002090600402016000909190919091506000820160009054906101000a900473ffffffffffffffffffffffffffffffffffffffff168160000160006101000a81548173ffffffffffffffffffffffffffffffffffffffff021916908373ffffffffffffffffffffffffffffffffffffffff16021790555060018201816001019081611c679190614d1f565b506002820160009054906101000a900460ff168160020160006101000a81548160ff02191690831515021790555060038201816003019081611ca99190614d1f565b50505050505050565b60606007805480602002602001604051908101604052809291908181526020016000905b82821015611f5b57838290600052602060002090600402016040518060800160405290816000820160009054906101000a900473ffffffffffffffffffffffffffffffffffffffff1673ffffffffffffffffffffffffffffffffffffffff1673ffffffffffffffffffffffffffffffffffffffff168152602001600182018054611d5f90614a07565b80601f0160208091040260200160405190810160405280929190818152602001828054611d8b90614a07565b8015611dd85780601f10611dad57610100808354040283529160200191611dd8565b820191906000526020600020905b815481529060010190602001808311611dbb57829003601f168201915b50505050508152602001600282018054611df190614a07565b80601f0160208091040260200160405190810160405280929190818152602001828054611e1d90614a07565b8015611e6a5780601f10611e3f57610100808354040283529160200191611e6a565b820191906000526020600020905b815481529060010190602001808311611e4d57829003601f168201915b5050505050815260200160038201805480602002602001604051908101604052809291908181526020016000905b82821015611f44578382906000526020600020018054611eb790614a07565b80601f0160208091040260200160405190810160405280929190818152602001828054611ee390614a07565b8015611f305780601f10611f0557610100808354040283529160200191611f30565b820191906000526020600020905b815481529060010190602001808311611f1357829003601f168201915b505050505081526020019060010190611e98565b505050508152505081526020019060010190611cd6565b50505050905090565b60606005805480602002602001604051908101604052809291908181526020016000905b8282101561225857838290600052602060002090600502016040518060a00160405290816000820160009054906101000a900473ffffffffffffffffffffffffffffffffffffffff1673ffffffffffffffffffffffffffffffffffffffff1673ffffffffffffffffffffffffffffffffffffffff16815260200160018201805461201190614a07565b80601f016020809104026020016040519081016040528092919081815260200182805461203d90614a07565b801561208a5780601f1061205f5761010080835404028352916020019161208a565b820191906000526020600020905b81548152906001019060200180831161206d57829003601f168201915b505050505081526020016002820180546120a390614a07565b80601f01602080910402602001604051908101604052809291908181526020018280546120cf90614a07565b801561211c5780601f106120f15761010080835404028352916020019161211c565b820191906000526020600020905b8154815290600101906020018083116120ff57829003601f168201915b5050505050815260200160038201805461213590614a07565b80601f016020809104026020016040519081016040528092919081815260200182805461216190614a07565b80156121ae5780601f10612183576101008083540402835291602001916121ae565b820191906000526020600020905b81548152906001019060200180831161219157829003601f168201915b505050505081526020016004820180546121c790614a07565b80601f01602080910402602001604051908101604052809291908181526020018280546121f390614a07565b80156122405780601f1061221557610100808354040283529160200191612240565b820191906000526020600020905b81548152906001019060200180831161222357829003601f168201915b50505050508152505081526020019060010190611f88565b50505050905090565b6000600660003373ffffffffffffffffffffffffffffffffffffffff1673ffffffffffffffffffffffffffffffffffffffff1681526020019081526020016000209050838160010190816122b59190614c37565b50828160020190816122c79190614c37565b50818160030190805190602001906122e09291906136f8565b50338160000160006101000a81548173ffffffffffffffffffffffffffffffffffffffff021916908373ffffffffffffffffffffffffffffffffffffffff16021790555060078190806001815401808255809150506001900390600052602060002090600402016000909190919091506000820160009054906101000a900473ffffffffffffffffffffffffffffffffffffffff168160000160006101000a81548173ffffffffffffffffffffffffffffffffffffffff021916908373ffffffffffffffffffffffffffffffffffffffff160217905550600182018160010190816123cb9190614d1f565b50600282018160020190816123e09190614d1f565b5060038201816003019080546123f7929190613751565b50505050505050565b60606001805480602002602001604051908101604052809291908181526020016000905b828210156126f457838290600052602060002090600502016040518060a001604052908160008201805461245790614a07565b80601f016020809104026020016040519081016040528092919081815260200182805461248390614a07565b80156124d05780601f106124a5576101008083540402835291602001916124d0565b820191906000526020600020905b8154815290600101906020018083116124b357829003601f168201915b505050505081526020016001820180546124e990614a07565b80601f016020809104026020016040519081016040528092919081815260200182805461251590614a07565b80156125625780601f1061253757610100808354040283529160200191612562565b820191906000526020600020905b81548152906001019060200180831161254557829003601f168201915b5050505050815260200160028201805461257b90614a07565b80601f01602080910402602001604051908101604052809291908181526020018280546125a790614a07565b80156125f45780601f106125c9576101008083540402835291602001916125f4565b820191906000526020600020905b8154815290600101906020018083116125d757829003601f168201915b5050505050815260200160038201805461260d90614a07565b80601f016020809104026020016040519081016040528092919081815260200182805461263990614a07565b80156126865780601f1061265b57610100808354040283529160200191612686565b820191906000526020600020905b81548152906001019060200180831161266957829003601f168201915b505050505081526020016004820160009054906101000a900473ffffffffffffffffffffffffffffffffffffffff1673ffffffffffffffffffffffffffffffffffffffff1673ffffffffffffffffffffffffffffffffffffffff168152505081526020019060010190612424565b50505050905090565b600060205280600052604060002060009150905080600001805461272090614a07565b80601f016020809104026020016040519081016040528092919081815260200182805461274c90614a07565b80156127995780601f1061276e57610100808354040283529160200191612799565b820191906000526020600020905b81548152906001019060200180831161277c57829003601f168201915b5050505050908060010180546127ae90614a07565b80601f01602080910402602001604051908101604052809291908181526020018280546127da90614a07565b80156128275780601f106127fc57610100808354040283529160200191612827565b820191906000526020600020905b81548152906001019060200180831161280a57829003601f168201915b50505050509080600201805461283c90614a07565b80601f016020809104026020016040519081016040528092919081815260200182805461286890614a07565b80156128b55780601f1061288a576101008083540402835291602001916128b5565b820191906000526020600020905b81548152906001019060200180831161289857829003601f168201915b5050505050908060030180546128ca90614a07565b80601f01602080910402602001604051908101604052809291908181526020018280546128f690614a07565b80156129435780601f1061291857610100808354040283529160200191612943565b820191906000526020600020905b81548152906001019060200180831161292657829003601f168201915b5050505050908060040160009054906101000a900473ffffffffffffffffffffffffffffffffffffffff16905085565b60606003805480602002602001604051908101604052809291908181526020016000905b82821015612c6757838290600052602060002090600502016040518060a00160405290816000820180546129ca90614a07565b80601f01602080910402602001604051908101604052809291908181526020018280546129f690614a07565b8015612a435780601f10612a1857610100808354040283529160200191612a43565b820191906000526020600020905b815481529060010190602001808311612a2657829003601f168201915b505050505081526020016001820160009054906101000a900473ffffffffffffffffffffffffffffffffffffffff1673ffffffffffffffffffffffffffffffffffffffff1673ffffffffffffffffffffffffffffffffffffffff168152602001600282018054612ab290614a07565b80601f0160208091040260200160405190810160405280929190818152602001828054612ade90614a07565b8015612b2b5780601f10612b0057610100808354040283529160200191612b2b565b820191906000526020600020905b815481529060010190602001808311612b0e57829003601f168201915b50505050508152602001600382018054612b4490614a07565b80601f0160208091040260200160405190810160405280929190818152602001828054612b7090614a07565b8015612bbd5780601f10612b9257610100808354040283529160200191612bbd565b820191906000526020600020905b815481529060010190602001808311612ba057829003601f168201915b50505050508152602001600482018054612bd690614a07565b80601f0160208091040260200160405190810160405280929190818152602001828054612c0290614a07565b8015612c4f5780601f10612c2457610100808354040283529160200191612c4f565b820191906000526020600020905b815481529060010190602001808311612c3257829003601f168201915b50505050508152505081526020019060010190612997565b50505050905090565b60078181548110612c8057600080fd5b90600052602060002090600402016000915090508060000160009054906101000a900473ffffffffffffffffffffffffffffffffffffffff1690806001018054612cc990614a07565b80601f0160208091040260200160405190810160405280929190818152602001828054612cf590614a07565b8015612d425780601f10612d1757610100808354040283529160200191612d42565b820191906000526020600020905b815481529060010190602001808311612d2557829003601f168201915b505050505090806002018054612d5790614a07565b80601f0160208091040260200160405190810160405280929190818152602001828054612d8390614a07565b8015612dd05780601f10612da557610100808354040283529160200191612dd0565b820191906000526020600020905b815481529060010190602001808311612db357829003601f168201915b5050505050905083565b6060600b805480602002602001604051908101604052809291908181526020016000905b82821015612fc557838290600052602060002090600402016040518060800160405290816000820160009054906101000a900473ffffffffffffffffffffffffffffffffffffffff1673ffffffffffffffffffffffffffffffffffffffff1673ffffffffffffffffffffffffffffffffffffffff168152602001600182018054612e8790614a07565b80601f0160208091040260200160405190810160405280929190818152602001828054612eb390614a07565b8015612f005780601f10612ed557610100808354040283529160200191612f00565b820191906000526020600020905b815481529060010190602001808311612ee357829003601f168201915b505050505081526020016002820160009054906101000a900460ff16151515158152602001600382018054612f3490614a07565b80601f0160208091040260200160405190810160405280929190818152602001828054612f6090614a07565b8015612fad5780601f10612f8257610100808354040283529160200191612fad565b820191906000526020600020905b815481529060010190602001808311612f9057829003601f168201915b50505050508152505081526020019060010190612dfe565b50505050905090565b60018181548110612fde57600080fd5b906000526020600020906005020160009150905080600001805461300190614a07565b80601f016020809104026020016040519081016040528092919081815260200182805461302d90614a07565b801561307a5780601f1061304f5761010080835404028352916020019161307a565b820191906000526020600020905b81548152906001019060200180831161305d57829003601f168201915b50505050509080600101805461308f90614a07565b80601f01602080910402602001604051908101604052809291908181526020018280546130bb90614a07565b80156131085780601f106130dd57610100808354040283529160200191613108565b820191906000526020600020905b8154815290600101906020018083116130eb57829003601f168201915b50505050509080600201805461311d90614a07565b80601f016020809104026020016040519081016040528092919081815260200182805461314990614a07565b80156131965780601f1061316b57610100808354040283529160200191613196565b820191906000526020600020905b81548152906001019060200180831161317957829003601f168201915b5050505050908060030180546131ab90614a07565b80601f01602080910402602001604051908101604052809291908181526020018280546131d790614a07565b80156132245780601f106131f957610100808354040283529160200191613224565b820191906000526020600020905b81548152906001019060200180831161320757829003601f168201915b5050505050908060040160009054906101000a900473ffffffffffffffffffffffffffffffffffffffff16905085565b6009818154811061326457600080fd5b90600052602060002090600402016000915090508060000160009054906101000a900473ffffffffffffffffffffffffffffffffffffffff16908060010180546132ad90614a07565b80601f01602080910402602001604051908101604052809291908181526020018280546132d990614a07565b80156133265780601f106132fb57610100808354040283529160200191613326565b820191906000526020600020905b81548152906001019060200180831161330957829003601f168201915b50505050509080600201805461333b90614a07565b80601f016020809104026020016040519081016040528092919081815260200182805461336790614a07565b80156133b45780601f10613389576101008083540402835291602001916133b4565b820191906000526020600020905b81548152906001019060200180831161339757829003601f168201915b5050505050905083565b600b81815481106133ce57600080fd5b90600052602060002090600402016000915090508060000160009054906101000a900473ffffffffffffffffffffffffffffffffffffffff169080600101805461341790614a07565b80601f016020809104026020016040519081016040528092919081815260200182805461344390614a07565b80156134905780601f1061346557610100808354040283529160200191613490565b820191906000526020600020905b81548152906001019060200180831161347357829003601f168201915b5050505050908060020160009054906101000a900460ff16908060030180546134b890614a07565b80601f01602080910402602001604051908101604052809291908181526020018280546134e490614a07565b80156135315780601f1061350657610100808354040283529160200191613531565b820191906000526020600020905b81548152906001019060200180831161351457829003601f168201915b5050505050905084565b60008060003373ffffffffffffffffffffffffffffffffffffffff1673ffffffffffffffffffffffffffffffffffffffff16815260200190815260200160002090508481600001908161358e9190614c37565b50838160010190816135a09190614c37565b50828160020190816135b29190614c37565b50818160030190816135c49190614c37565b50338160040160006101000a81548173ffffffffffffffffffffffffffffffffffffffff021916908373ffffffffffffffffffffffffffffffffffffffff1602179055506001819080600181540180825580915050600190039060005260206000209060050201600090919091909150600082018160000190816136489190614d1f565b506001820181600101908161365d9190614d1f565b50600282018160020190816136729190614d1f565b50600382018160030190816136879190614d1f565b506004820160009054906101000a900473ffffffffffffffffffffffffffffffffffffffff168160040160006101000a81548173ffffffffffffffffffffffffffffffffffffffff021916908373ffffffffffffffffffffffffffffffffffffffff16021790555050505050505050565b828054828255906000526020600020908101928215613740579160200282015b8281111561373f57825182908161372f9190614c37565b5091602001919060010190613718565b5b50905061374d91906137ae565b5090565b82805482825590600052602060002090810192821561379d5760005260206000209182015b8281111561379c578282908161378c9190614d1f565b5091600101919060010190613776565b5b5090506137aa91906137ae565b5090565b5b808211156137ce57600081816137c591906137d2565b506001016137af565b5090565b5080546137de90614a07565b6000825580601f106137f0575061380f565b601f01602090049060005260206000209081019061380e9190613812565b5b50565b5b8082111561382b576000816000905550600101613813565b5090565b6000604051905090565b600080fd5b600080fd5b600073ffffffffffffffffffffffffffffffffffffffff82169050919050565b600061386e82613843565b9050919050565b61387e81613863565b811461388957600080fd5b50565b60008135905061389b81613875565b92915050565b6000602082840312156138b7576138b6613839565b5b60006138c58482850161388c565b91505092915050565b6138d781613863565b82525050565b600081519050919050565b600082825260208201905092915050565b60005b838110156139175780820151818401526020810190506138fc565b60008484015250505050565b6000601f19601f8301169050919050565b600061393f826138dd565b61394981856138e8565b93506139598185602086016138f9565b61396281613923565b840191505092915050565b600060a08201905061398260008301886138ce565b81810360208301526139948187613934565b905081810360408301526139a88186613934565b905081810360608301526139bc8185613934565b905081810360808301526139d08184613934565b90509695505050505050565b60008115159050919050565b6139f1816139dc565b82525050565b6000608082019050613a0c60008301876138ce565b8181036020830152613a1e8186613934565b9050613a2d60408301856139e8565b8181036060830152613a3f8184613934565b905095945050505050565b600080fd5b600080fd5b7f4e487b7100000000000000000000000000000000000000000000000000000000600052604160045260246000fd5b613a8c82613923565b810181811067ffffffffffffffff82111715613aab57613aaa613a54565b5b80604052505050565b6000613abe61382f565b9050613aca8282613a83565b919050565b600067ffffffffffffffff821115613aea57613ae9613a54565b5b613af382613923565b9050602081019050919050565b82818337600083830152505050565b6000613b22613b1d84613acf565b613ab4565b905082815260208101848484011115613b3e57613b3d613a4f565b5b613b49848285613b00565b509392505050565b600082601f830112613b6657613b65613a4a565b5b8135613b76848260208601613b0f565b91505092915050565b600060208284031215613b9557613b94613839565b5b600082013567ffffffffffffffff811115613bb357613bb261383e565b5b613bbf84828501613b51565b91505092915050565b600060a0820190508181036000830152613be28188613934565b9050613bf160208301876138ce565b8181036040830152613c038186613934565b90508181036060830152613c178185613934565b90508181036080830152613c2b8184613934565b90509695505050505050565b6000819050919050565b613c4a81613c37565b8114613c5557600080fd5b50565b600081359050613c6781613c41565b92915050565b600060208284031215613c8357613c82613839565b5b6000613c9184828501613c58565b91505092915050565b600081519050919050565b600082825260208201905092915050565b6000819050602082019050919050565b613ccf81613863565b82525050565b600082825260208201905092915050565b6000613cf1826138dd565b613cfb8185613cd5565b9350613d0b8185602086016138f9565b613d1481613923565b840191505092915050565b600081519050919050565b600082825260208201905092915050565b6000819050602082019050919050565b6000613d578383613ce6565b905092915050565b6000602082019050919050565b6000613d7782613d1f565b613d818185613d2a565b935083602082028501613d9385613d3b565b8060005b85811015613dcf5784840389528151613db08582613d4b565b9450613dbb83613d5f565b925060208a01995050600181019050613d97565b50829750879550505050505092915050565b6000608083016000830151613df96000860182613cc6565b5060208301518482036020860152613e118282613ce6565b91505060408301518482036040860152613e2b8282613ce6565b91505060608301518482036060860152613e458282613d6c565b9150508091505092915050565b6000613e5e8383613de1565b905092915050565b6000602082019050919050565b6000613e7e82613c9a565b613e888185613ca5565b935083602082028501613e9a85613cb6565b8060005b85811015613ed65784840389528151613eb78582613e52565b9450613ec283613e66565b925060208a01995050600181019050613e9e565b50829750879550505050505092915050565b60006020820190508181036000830152613f028184613e73565b905092915050565b60008060008060808587031215613f2457613f23613839565b5b600085013567ffffffffffffffff811115613f4257613f4161383e565b5b613f4e87828801613b51565b945050602085013567ffffffffffffffff811115613f6f57613f6e61383e565b5b613f7b87828801613b51565b935050604085013567ffffffffffffffff811115613f9c57613f9b61383e565b5b613fa887828801613b51565b925050606085013567ffffffffffffffff811115613fc957613fc861383e565b5b613fd587828801613b51565b91505092959194509250565b600067ffffffffffffffff821115613ffc57613ffb613a54565b5b602082029050602081019050919050565b600080fd5b600061402561402084613fe1565b613ab4565b905080838252602082019050602084028301858111156140485761404761400d565b5b835b8181101561408f57803567ffffffffffffffff81111561406d5761406c613a4a565b5b80860161407a8982613b51565b8552602085019450505060208101905061404a565b5050509392505050565b600082601f8301126140ae576140ad613a4a565b5b81356140be848260208601614012565b91505092915050565b6000806000606084860312156140e0576140df613839565b5b600084013567ffffffffffffffff8111156140fe576140fd61383e565b5b61410a86828701613b51565b935050602084013567ffffffffffffffff81111561412b5761412a61383e565b5b61413786828701613b51565b925050604084013567ffffffffffffffff8111156141585761415761383e565b5b61416486828701614099565b9150509250925092565b600060608201905061418360008301866138ce565b81810360208301526141958185613934565b905081810360408301526141a98184613934565b9050949350505050565b6141bc816139dc565b81146141c757600080fd5b50565b6000813590506141d9816141b3565b92915050565b6000806000606084860312156141f8576141f7613839565b5b600084013567ffffffffffffffff8111156142165761421561383e565b5b61422286828701613b51565b9350506020614233868287016141ca565b925050604084013567ffffffffffffffff8111156142545761425361383e565b5b61426086828701613b51565b9150509250925092565b600081519050919050565b600082825260208201905092915050565b6000819050602082019050919050565b60006080830160008301516142ae6000860182613cc6565b50602083015184820360208601526142c68282613ce6565b915050604083015184820360408601526142e08282613ce6565b915050606083015184820360608601526142fa8282613d6c565b9150508091505092915050565b60006143138383614296565b905092915050565b6000602082019050919050565b60006143338261426a565b61433d8185614275565b93508360208202850161434f85614286565b8060005b8581101561438b578484038952815161436c8582614307565b94506143778361431b565b925060208a01995050600181019050614353565b50829750879550505050505092915050565b600060208201905081810360008301526143b78184614328565b905092915050565b600081519050919050565b600082825260208201905092915050565b6000819050602082019050919050565b600060a0830160008301516144036000860182613cc6565b506020830151848203602086015261441b8282613ce6565b915050604083015184820360408601526144358282613ce6565b9150506060830151848203606086015261444f8282613ce6565b915050608083015184820360808601526144698282613ce6565b9150508091505092915050565b600061448283836143eb565b905092915050565b6000602082019050919050565b60006144a2826143bf565b6144ac81856143ca565b9350836020820285016144be856143db565b8060005b858110156144fa57848403895281516144db8582614476565b94506144e68361448a565b925060208a019950506001810190506144c2565b50829750879550505050505092915050565b600060208201905081810360008301526145268184614497565b905092915050565b600081519050919050565b600082825260208201905092915050565b6000819050602082019050919050565b600060a08301600083015184820360008601526145778282613ce6565b915050602083015184820360208601526145918282613ce6565b915050604083015184820360408601526145ab8282613ce6565b915050606083015184820360608601526145c58282613ce6565b91505060808301516145da6080860182613cc6565b508091505092915050565b60006145f1838361455a565b905092915050565b6000602082019050919050565b60006146118261452e565b61461b8185614539565b93508360208202850161462d8561454a565b8060005b85811015614669578484038952815161464a85826145e5565b9450614655836145f9565b925060208a01995050600181019050614631565b50829750879550505050505092915050565b600060208201905081810360008301526146958184614606565b905092915050565b600060a08201905081810360008301526146b78188613934565b905081810360208301526146cb8187613934565b905081810360408301526146df8186613934565b905081810360608301526146f38185613934565b905061470260808301846138ce565b9695505050505050565b600081519050919050565b600082825260208201905092915050565b6000819050602082019050919050565b600060a08301600083015184820360008601526147558282613ce6565b915050602083015161476a6020860182613cc6565b50604083015184820360408601526147828282613ce6565b9150506060830151848203606086015261479c8282613ce6565b915050608083015184820360808601526147b68282613ce6565b9150508091505092915050565b60006147cf8383614738565b905092915050565b6000602082019050919050565b60006147ef8261470c565b6147f98185614717565b93508360208202850161480b85614728565b8060005b85811015614847578484038952815161482885826147c3565b9450614833836147d7565b925060208a0199505060018101905061480f565b50829750879550505050505092915050565b6000602082019050818103600083015261487381846147e4565b905092915050565b600081519050919050565b600082825260208201905092915050565b6000819050602082019050919050565b6148b0816139dc565b82525050565b60006080830160008301516148ce6000860182613cc6565b50602083015184820360208601526148e68282613ce6565b91505060408301516148fb60408601826148a7565b50606083015184820360608601526149138282613ce6565b9150508091505092915050565b600061492c83836148b6565b905092915050565b6000602082019050919050565b600061494c8261487b565b6149568185614886565b93508360208202850161496885614897565b8060005b858110156149a457848403895281516149858582614920565b945061499083614934565b925060208a0199505060018101905061496c565b50829750879550505050505092915050565b600060208201905081810360008301526149d08184614941565b905092915050565b7f4e487b7100000000000000000000000000000000000000000000000000000000600052602260045260246000fd5b60006002820490506001821680614a1f57607f821691505b602082108103614a3257614a316149d8565b5b50919050565b600081905092915050565b6000614a4e826138dd565b614a588185614a38565b9350614a688185602086016138f9565b80840191505092915050565b6000614a808284614a43565b915081905092915050565b60008190508160005260206000209050919050565b60006020601f8301049050919050565b600082821b905092915050565b600060088302614aed7fffffffffffffffffffffffffffffffffffffffffffffffffffffffffffffffff82614ab0565b614af78683614ab0565b95508019841693508086168417925050509392505050565b6000819050919050565b6000614b34614b2f614b2a84613c37565b614b0f565b613c37565b9050919050565b6000819050919050565b614b4e83614b19565b614b62614b5a82614b3b565b848454614abd565b825550505050565b600090565b614b77614b6a565b614b82818484614b45565b505050565b5b81811015614ba657614b9b600082614b6f565b600181019050614b88565b5050565b601f821115614beb57614bbc81614a8b565b614bc584614aa0565b81016020851015614bd4578190505b614be8614be085614aa0565b830182614b87565b50505b505050565b600082821c905092915050565b6000614c0e60001984600802614bf0565b1980831691505092915050565b6000614c278383614bfd565b9150826002028217905092915050565b614c40826138dd565b67ffffffffffffffff811115614c5957614c58613a54565b5b614c638254614a07565b614c6e828285614baa565b600060209050601f831160018114614ca15760008415614c8f578287015190505b614c998582614c1b565b865550614d01565b601f198416614caf86614a8b565b60005b82811015614cd757848901518255600182019150602085019450602081019050614cb2565b86831015614cf45784890151614cf0601f891682614bfd565b8355505b6001600288020188555050505b505050505050565b600081549050614d1881614a07565b9050919050565b818103614d2d575050614e05565b614d3682614d09565b67ffffffffffffffff811115614d4f57614d4e613a54565b5b614d598254614a07565b614d64828285614baa565b6000601f831160018114614d935760008415614d81578287015490505b614d8b8582614c1b565b865550614dfe565b601f198416614da187614a8b565b9650614dac86614a8b565b60005b82811015614dd457848901548255600182019150600185019450602081019050614daf565b86831015614df15784890154614ded601f891682614bfd565b8355505b6001600288020188555050505b5050505050505b56fea2646970667358221220aeb51f2359e710fed21f28c9c6631ce023a28d174edd087541ea9e299ef622e264736f6c63430008110033",
  "linkReferences": {},
  "deployedLinkReferences": {}
}